:020000040000fa
:080000000002040000000000f2
:020000040000fa
:04000800001d0000d7
:020000040000fa
:04000c00301d0000a3
:020000040000fa
:04001000e41c0000ec
:020000040000fa
:04001400261d0000a5
:020000040000fa
:040018001c1d0000ab
:020000040000fa
:04001c00e41c0000e0
:020000040000fa
:04002000e41c0000dc
:020000040000fa
:04002400e41c0000d8
:020000040000fa
:04002800e41c0000d4
:020000040000fa
:04002c00e41c0000d0
:020000040000fa
:04003000e41c0000cc
:020000040000fa
:04003400521b00005b
:020000040000fa
:04003800c41c0000e4
:020000040000fa
:04003c00e41c0000c0
:020000040000fa
:04004000e41c0000bc
:020000040000fa
:04004400641b000039
:020000040000fa
:04004800e41c0000b4
:020000040000fa
:04004c00e41c0000b0
:020000040000fa
:04005000e41c0000ac
:020000040000fa
:04005400de1b0000af
:020000040000fa
:04005800ae1b0000db
:020000040000fa
:04005c00e41c0000a0
:020000040000fa
:04006000cc1c0000b4
:020000040000fa
:04006400e41c000098
:020000040000fa
:04006800e41c000094
:020000040000fa
:04006c00e41c000090
:020000040000fa
:04007000e41c00008c
:020000040000fa
:04007400e41c000088
:020000040000fa
:04007800e41c000084
:020000040000fa
:04007c00e41c000080
:020000040000fa
:04008000e41c00007c
:020000040000fa
:04008400e41c000078
:020000040000fa
:04008800d41c000084
:020000040000fa
:04008c00e41c000070
:020000040000fa
:04009000e41c00006c
:020000040000fa
:04009400e41c000068
:020000040000fa
:04009800e41c000064
:020000040000fa
:04009c00e41c000060
:020000040000fa
:0400a000681c0000d8
:020000040000fa
:0400a400c61b000077
:020000040000fa
:0400a800e41c000054
:020000040000fa
:0400ac00e41c000050
:020000040000fa
:0400b000e41c00004c
:020000040000fa
:0400b400761b0000b7
:020000040000fa
:0400b800dc1c00004c
:020000040000fa
:0400bc00e41c000040
:020000040000fa
:0400c000e41c00003c
:020000040000fa
:0400c400e41c000038
:020000040000fa
:0400c800e41c000034
:020000040000fa
:0400cc00e41c000030
:020000040000fa
:0400d000e41c00002c
:020000040000fa
:0400d400e41c000028
:020000040000fa
:0400d800e41c000024
:020000040000fa
:0400dc00e41c000020
:020000040000fa
:0400e000e41c00001c
:020000040000fa
:0400e400e41c000018
:020000040000fa
:0400e800e41c000014
:020000040000fa
:0400ec00e41c000010
:020000040000fa
:0400f000e41c00000c
:020000040000fa
:0400f400e41c000008
:020000040000fa
:0400f800e41c000004
:020000040000fa
:0400fc00e41c000000
:020000040000fa
:04010000e41c0000fb
:020000040000fa
:04010400e41c0000f7
:020000040000fa
:04010800e41c0000f3
:020000040000fa
:04010c00e41c0000ef
:020000040000fa
:04011000e41c0000eb
:020000040000fa
:04011400e41c0000e7
:020000040000fa
:04011800e41c0000e3
:020000040000fa
:04011c00e41c0000df
:020000040000fa
:04012000e41c0000db
:020000040000fa
:04012400e41c0000d7
:020000040000fa
:04012800e41c0000d3
:020000040000fa
:04012c00501c000063
:020000040000fa
:04013000e41c0000cb
:020000040000fa
:04013400e41c0000c7
:020000040000fa
:04013800e41c0000c3
:020000040000fa
:04013c00e41c0000bf
:020000040000fa
:04014000e41c0000bb
:020000040000fa
:04014400e41c0000b7
:020000040000fa
:04014800e41c0000b3
:020000040000fa
:04014c00e41c0000af
:020000040000fa
:04015000e41c0000ab
:020000040000fa
:04015400e41c0000a7
:020000040000fa
:04015800e41c0000a3
:020000040000fa
:04015c00e41c00009f
:020000040000fa
:04016000e41c00009b
:020000040000fa
:04016400e41c000097
:020000040000fa
:04016800e41c000093
:020000040000fa
:04016c00e41c00008f
:020000040000fa
:04017000e41c00008b
:020000040000fa
:04017400e41c000087
:020000040000fa
:04017800e41c000083
:020000040000fa
:04017c00e41c00007f
:020000040000fa
:04018000e41c00007b
:020000040000fa
:04018400e41c000077
:020000040000fa
:04018800e41c000073
:020000040000fa
:04018c00e41c00006f
:020000040000fa
:04019000e41c00006b
:020000040000fa
:04019400e41c000067
:020000040000fa
:04019800e41c000063
:020000040000fa
:04019c00e41c00005f
:020000040000fa
:0401a000e41c00005b
:020000040000fa
:0401a400e41c000057
:020000040000fa
:0401a800e41c000053
:020000040000fa
:0401ac00e41c00004f
:020000040000fa
:0401b000e41c00004b
:020000040000fa
:0401b400e41c000047
:020000040000fa
:0401b800e41c000043
:020000040000fa
:0401bc00e41c00003f
:020000040000fa
:0401c000e41c00003b
:020000040000fa
:0401c400e41c000037
:020000040000fa
:0401c800e41c000033
:020000040000fa
:0401cc00e41c00002f
:020000040000fa
:0401d000e41c00002b
:020000040000fa
:0401d400e41c000027
:020000040000fa
:0401d800e41c000023
:020000040000fa
:0401dc00e41c00001f
:020000040000fa
:0401e000e41c00001b
:020000040000fa
:0401e400e41c000017
:020000040000fa
:0401e800e41c000013
:020000040000fa
:0401ec00e41c00000f
:020000040000fa
:0401f000e41c00000b
:020000040000fa
:0401f400e41c000007
:020000040000fa
:0401f800e41c000003
:020000040000fa
:0401fc00e41c0000ff
:020000040000fa
:04020000e41c0000fa
:020000040000fa
:04020400e41c0000f6
:020000040000fa
:04020800e41c0000f2
:020000040000fa
:04020c00e41c0000ee
:020000040000fa
:04021000e41c0000ea
:020000040000fa
:04021400e41c0000e6
:020000040000fa
:04021800e41c0000e2
:020000040000fa
:04021c00e41c0000de
:020000040000fa
:04022000e41c0000da
:020000040000fa
:04022400e41c0000d6
:020000040000fa
:04022800e41c0000d2
:020000040000fa
:04022c00e41c0000ce
:020000040000fa
:04023000e41c0000ca
:020000040000fa
:04023400e41c0000c6
:020000040000fa
:04023800e41c0000c2
:020000040000fa
:04023c00e41c0000be
:020000040000fa
:04024000e41c0000ba
:020000040000fa
:04024400e41c0000b6
:020000040000fa
:04024800e41c0000b2
:020000040000fa
:04024c00e41c0000ae
:020000040000fa
:04025000e41c0000aa
:020000040000fa
:04025400e41c0000a6
:020000040000fa
:04025800e41c0000a2
:020000040000fa
:04025c00e41c00009e
:020000040000fa
:04026000e41c00009a
:020000040000fa
:04026400e41c000096
:020000040000fa
:04026800e41c000092
:020000040000fa
:04026c00e41c00008e
:020000040000fa
:04027000e41c00008a
:020000040000fa
:04027400e41c000086
:020000040000fa
:04027800e41c000082
:020000040000fa
:04027c00e41c00007e
:020000040000fa
:04028000e41c00007a
:020000040000fa
:04028400e41c000076
:020000040000fa
:04028800e41c000072
:020000040000fa
:04028c00e41c00006e
:020000040000fa
:04029000e41c00006a
:020000040000fa
:04029400e41c000066
:020000040000fa
:04029800e41c000062
:020000040000fa
:04029c00e41c00005e
:020000040000fa
:0402a000e41c00005a
:020000040000fa
:0402a400e41c000056
:020000040000fa
:0402a800e41c000052
:020000040000fa
:0402ac00e41c00004e
:020000040000fa
:0402b000e41c00004a
:020000040000fa
:0402b400e41c000046
:020000040000fa
:0402b800e41c000042
:020000040000fa
:0402bc00e41c00003e
:020000040000fa
:0402c000e41c00003a
:020000040000fa
:0402c400e41c000036
:020000040000fa
:0402c800e41c000032
:020000040000fa
:0402cc00e41c00002e
:020000040000fa
:0402d000e41c00002a
:020000040000fa
:0402d400e41c000026
:020000040000fa
:0402d800e41c000022
:020000040000fa
:0402dc00e41c00001e
:020000040000fa
:0402e000e41c00001a
:020000040000fa
:0402e400e41c000016
:020000040000fa
:0402e800e41c000012
:020000040000fa
:0402ec00e41c00000e
:020000040000fa
:0402f000e41c00000a
:020000040000fa
:0402f400e41c000006
:020000040000fa
:0402f800e41c000002
:020000040000fa
:0402fc00e41c0000fe
:020000040000fa
:04030000a61c000037
:020000040000fa
:04030400701c000069
:020000040000fa
:04030800e41c0000f1
:020000040000fa
:04030c00e41c0000ed
:020000040000fa
:04031000e41c0000e9
:020000040000fa
:100400000f4021000eff24000e01880000000000b4
:10041000000020000000e000020032000001200087
:100420002002880014000700720007000000e000ae
:1004300003003a00a0d32100010020000200370091
:100440000000200001002000810f70000100320038
:100450000f000700000020000000e0000200320052
:100460000000020000000000c007020000000000c1
:100470000040da000000fe00201720000000e0002d
:1004800002003200002020009001880000000600d9
:10049000a1028800800478000000eb001f003700f4
:1004a000e284440054a0b4009905ba00e2844400f8
:1004b00054a0b4009906ba00e284440054a0b400e9
:1004c0000006eb00476fde00fd07b200ae018800ba
:1004d000636ce10003003a000ad801000000eb0061
:1004e0000e003700606ce10008003a00004deb00a0
:1004f0000a05e800020039003420ec000af0a000f0
:100500008b05e900f9ff3e00040037006168e10057
:10051000010032000086eb000b00070019c7ba008b
:100520001905ba000e04e00003003a000a00e000da
:10053000dbff3a0000000600fe07b200ae028800b2
:100540008a047800f5ff37000cd0a300e20f4d00bd
:100550001c00390089027800354dba000a05e80010
:10056000020039003420ec000af0a0008b05e900fd
:100570000f003200254dba000a05e80002003900dc
:100580003420ec000af0a0008b05e90008003200de
:100590000c00e0000600320015cdba000a05e800a4
:1005a000020039003420ec000af0a0008b05e900bd
:1005b0008984e80054a0b4000b00e000e2ff3a0098
:1005c000000006009902ba00055d78008b05e9007d
:1005d000f7ff3200c82ade00055d78008b05e900d0
:1005e000f3ff32000c00e000f1ff320019ddba0029
:1005f000eeff37000000050003f0a200889fbe0058
:100600008a9fbe008c1f7800fe00070005013300a2
:100610006450e1004f0032006420e10052003200db
:1006200003826c0007003b000905d0000306d000e0
:10063000820f54000c065d000200390002003200f7
:1006400089017800030678008582550004003d008a
:100650000003fd008103fd008502ea008b85420056
:10066000840f720002003b0060001000e080180060
:100670006011b8000005eb007a28e1000a0039009b
:1006800006007800c75ddd00f707b20087807500bf
:100690002d003700828171000a0178006105600039
:1006a0008180d1000080d3008502e900f9ff3b0082
:1006b000060440008784480002003b0060041400e8
:1006c000e0841c000988a300070032008a817100c1
:1006d00082817100610164008904d1000884d30023
:1006e0008b05e800170037000978a30013003a00d3
:1006f0000b00e000130034008b05e90008044400ff
:1007000089844c000a4474000978a3000d003a0063
:100710000b00e000070034008b05e90008044400ea
:1007200089844c0001003a000b0020000978a300e6
:10073000f7ff32000001eb000200370082817100f8
:100740000a017800740007000cf0a70001f0a00077
:10075000bd0037006420e10002003a00838f6c0086
:10076000bd0033000801be000200be00b600370025
:10077000889fbe008a9fbe008c1f7800a1000700e2
:10078000a800330003866c006450e1002e003200a4
:100790006420e100330032006150e1002f0032009c
:1007a0006120e1003100320085855500eb07b00083
:1007b0000900200008042000050037000804440058
:1007c00089844c000a0031000603430087834b00f4
:1007d0000001530081815b00f8ff33000203be007b
:1007e0000800a0000804440089844c00f6ff39008a
:1007f000c639dd00830173000100320013002000c0
:100800008904d1000884d3000998a30005003200b0
:100810000800a7000300a0008904d1000884d300c9
:100820008b05e8008904d1000884d3000001eb00a7
:100830000281d2003800070001f0a1000cf0a700ef
:1008400001f0a000800037006420e1008200320047
:100850000801be000200be00f7ff37006120e10082
:100860007d0032006000b800f3ff37000000200078
:1008700001f82700f0ff370014002000ad0037001a
:10088000f4ff2f00ab0037000001be004800070056
:100890000470a70003f0a1006509b1001600320042
:1008a0000d0035006828e10006003500f0ff2f003c
:1008b000f1ff27000300e00013003b0001002800c7
:1008c0000000050000004000818048008502e9002a
:1008d000fcff3a0008003700f88f420002003c009d
:1008e0008000eb00000005008100d1000080d300f3
:1008f0008502e800fcff3a000300e00002003b0034
:1009000060001000e0801800000006004f89de0043
:1009100082017800a200370081002000618055002c
:100920000b003d000b00200061fe2f000100e100e4
:100930001d00340082817100610164008904d100ce
:100940000884d3000000e800faff3a00710020009c
:1009500061006400030070000200600009003200c2
:1009600061044400e0844c000988a50005003200c1
:100970008b05e8006808e10002003a008904d10014
:100980000884d300f20f20000258e10005003d006a
:10099000c75ddd00f907b2008980750008007800a6
:1009a000000006000bf827008b007800000005000f
:1009b000c70ade00f107b200f50fb20008003200ee
:1009c000e1cf4200020032000170a00024000500c7
:1009d000810f70000100320004080500440005008a
:1009e000810f700002003a00140005008502e90042
:1009f0000000400081c04800fcff3b000170a000e7
:100a0000240005000004be00e9ff07000003be004b
:100a10000405be000200be00e5ff0700844f75001c
:100a2000000006000200be006450e1000500360030
:100a30006420e100020036000968a30001003a00ca
:100a40000800be000160a0004f0678004f05be0000
:100a50004f04be0000000600f0ff2f00f1ff27004a
:100a6000f9ff3700889fbe008a9fbe008c1f780068
:100a7000e4ff0700ebff330003866c006450e100e5
:100a8000240032006420e100270032006150e100c0
:100a9000220032006120e100210032008b854200fb
:100aa000eb07b1000134b800003ab8000804420076
:100ab00089844a00013ab8000030b80088804000bc
:100ac00009014a0004003300000040008180480012
:100ad000020149008b05e900c909dd0083017000ae
:100ae0000100320013002000c814de004814dd00ad
:100af0004709de001200b200c808de00088470005a
:100b000085ff070001f0a1000cf0a70001f0a00094
:100b1000cdff37006120e100cfff32000801be00a9
:100b20000200be00f7ff37006150e100fcff3a0011
:100b3000c9ff3700889fbe008a9fbe00841f7800cf
:100b4000b0ff07004f00780011003300f0ff2f00c6
:100b5000838f6c0006003b00040565000a00a700b7
:100b60000800370009f0a600100020000800370038
:100b7000820f5400838f5c000300390010002000b6
:100b800001003e000000200009f0a7000000ea007c
:100b90004f05be004f04be000000e000000006004c
:100ba000881f7800030478000300e00007003d0080
:100bb00060001000e080180060011900e081190059
:100bc00002003b0001f02d00030037000400070085
:100bd00008f0a70001f0a0004f0478000000060014
:100be000889fbe008a9fbe000082700004027100d0
:100bf00004827100260032000004be000200be0024
:100c00006011b8006b092000950220000182cf001e
:100c10000a0039000541b1000082cf000700390009
:100c20000541b1000982cf00040039000541b1003f
:100c30000882cf00010039000541b1000542520091
:100c4000120032000a003b008281710061016400e1
:100c50008100d1000080d3008984d3000884d300b0
:100c60008b05e8000442e800f7ff3a000700370070
:100c70000804440089844c0000004800818048003a
:100c80008b05e9000442e900f9ff3a0022ff070062
:0c0c90004f05be004f04be00000006002f
:020000040000fa
:100c9c002a2a00002a540000524100004e53000042
:100cac004d49000054540000494e000047200000fc
:100cbc004f4e00002d4200004f41000052440000f6
:100ccc0020530000454e0000534f000052200000fe
:100cdc00564100004c550000455300002a2a0000e4
:100cec002a0000004c6f0000636100006c200000c3
:100cfc00506f000074200000566f00006c740000f0
:100d0c0061670000653a0000205200006561000038
:100d1c00646900006e670000203d000020000000a8
:100d2c004c6f0000636100006c20000054650000f3
:100d3c006d70000065720000617400007572000037
:100d4c00653a0000205200006561000064690000f3
:100d5c006e670000203d0000200000004c6f00007a
:100d6c00636100006c200000537700006974000080
:100d7c00636800002073000074610000747500004b
:100d8c007300000053570000313a0000204f000060
:100d9c00464600002000000053570000313a000086
:100dac00204f00004e00000053570000323a000064
:100dbc00204f000046460000200000005357000062
:100dcc00323a0000204f00004e0000005357000044
:100ddc00333a0000204f000046460000200000007f
:100dec0053570000333a0000204f00004e00000023
:100dfc002a2a00002a200000524500004d4f000016
:100e0c005445000020430000414e0000204d0000de
:100e1c0045530000534100004745000020490000a5
:100e2c00442000003d20000030780000002000002d
:100e3c00524500004345000049560000454400005f
:100e4c00202a00002a2a000000520000656d0000d4
:100e5c006f74000065200000506f000074200000cb
:100e6c00566f00006c74000061670000653a00006a
:100e7c0020000000526500006d6f000074650000da
:100e8c0020540000656d0000706500007261000068
:100e9c0074750000726500003a20000000520000da
:100eac00656d00006f740000652000005377000032
:100ebc006974000063680000205300007461000036
:100ecc0074750000730000002a2a00002a2000001c
:100edc00524500004d4f000054450000204c0000ce
:100eec00494e0000204d00004553000053410000c6
:100efc004745000020490000442000003d20000030
:100f0c00002a00002a2a000020520000454d000053
:100f1c004f54000045200000534500004e54000083
:100f2c00204d000045530000534100004745000090
:100f3c002052000045430000454900005645000082
:100f4c00442000002a2a00002a00000052650000fc
:100f5c006d6f000074650000205000006f7400007d
:100f6c00205600006f6c0000746100006765000083
:040f7c003a00000037
:020000040000fa
:100f80000000fa00e3050700eb0107001b0507005e
:100f90001b0707005c05070026d0bf00e14f50008b
:100fa00002003a0094050700210037007d05070084
:100fb00000000000517180000008200000806000e7
:100fc00000f0a7000000ea000000e9004f00de008a
:100fd0008040780052718000001020000000610005
:100fe00000f0a7000000ea000000e9004f00de006a
:100ff0000040780000c070008080fb0052718000cb
:10100000002020000000610000f0a7000000ea00be
:101010000000e9004f00de00010070000000e00069
:10102000e4ff3a002c8ea9002caea9002ccea9001a
:101030007206070026d0bf00e14f500003003a00bf
:1010400082050700b60607000200370060010700ae
:10105000d1060700bd0507000c30ef000100370086
:101060000000000026d0bf000004e0000c003a00a1
:101070000009210010407800e54f500005003a00bb
:1010800000092100500807000009210061c0b300d9
:1010900001487800930107000c30ef00f1ff3700a2
:1010a00026d0bf00e14f5000edff3a0000000000e5
:1010b00060808000e30f5000fdff34000c30ef0033
:1010c00001000700e7ff37000000fa0050718000c0
:1010d0004700de006140600000c0ea00614060003f
:1010e0000080fb00610060004400dd006171800051
:1010f0000140a10001007000607188005071800003
:101100004800de006140600000c0ea00614060000d
:101110000080fb00610060004500dd00617180001f
:101120000150a100010070006071880050718000c2
:101130004900de006140600000c0ea0061406000dc
:101140000080fb00610060004600dd0061718000ee
:101150000160a10001007000607188003001200072
:101160004106070030808000108088004006200083
:101170007f07070010808000cf80de00e3fd0700be
:1011800002002000030a240036fe070002002000af
:101190000358240076fd0700e0808800f180880075
:1011a000800321002081880022818000e08080006f
:1011b000f18080007c0707003342a800e06428002b
:1011c000e7070700000000009111800000102000d8
:1011d000008060000000e000fbff3200a000200063
:1011e000a011880000000000911180000010200074
:1011f000008060000000e000fbff3200d000200013
:10120000a011880080672800d50707000830ef008c
:101210000f00370000000000911180000010200036
:10122000008060000000e000fbff32004080800092
:101230008103210000804000104078000000fb0086
:10124000a0118800408080000000e80040808800f5
:1012500040808000e40f5000eeff340000000000ea
:101260009111800000102000008060000000e0006c
:10127000fbff3200a0002000a01188000000000049
:101280009111800000102000008060000000e0004c
:10129000fbff3200d0002000a011880020012000b8
:1012a000f105070030808000208088004006200083
:1012b0002f070700208080000017b100cf80de00dc
:1012c00092fd070012582900f317240028fd07009b
:1012d000e0808800f1808800800321002081880060
:1012e00022818000e0808000f18080002e070700ce
:1012f0003342a80060692800990707000830ef0012
:101300000f00370000000000911180000010200045
:10131000008060000000e000fbff320040808000a1
:101320008103210000804000104078000000fb0095
:10133000a0118800408080000000e8004080880004
:1013400040808000e40f5000eeff340000000000f9
:101350009111800000102000008060000000e0007b
:10136000fbff3200a0002000a01188000000000058
:101370009111800000102000008060000000e0005b
:10138000fbff3200d0002000a0118800406b280035
:10139000730707000000000091118000001020007a
:1013a000008060000000e000fbff3200a000200091
:1013b000a0118800000000009111800000102000a2
:1013c000008060000000e000fbff3200d000200041
:1013d000a01188005171800000082000008060008a
:1013e0000000e00003003200806c28005c0707006a
:1013f00003003700206d2800590707000000000097
:101400009111800000102000008060000000e000ca
:10141000fbff3200a0002000a011880000000000a7
:101420009111800000102000008060000000e000aa
:10143000fbff3200d0002000a01188005171800015
:1014400000102000008060000000e0000300320077
:10145000a06d28004207070003003700406e2800f7
:101460003f070700000000009111800000102000dd
:10147000008060000000e000fbff3200a0002000c0
:10148000a0118800000000009111800000102000d1
:10149000008060000000e000fbff3200d000200070
:1014a000a0118800517180000020200000806000a1
:1014b0000000e00003003200c06e2800280707008b
:1014c00003003700606f28002507070000000000b8
:1014d0009111800000102000008060000000e000fa
:1014e000fbff3200a0002000a011880000000000d7
:1014f0009111800000102000008060000000e000da
:10150000fbff3200d0002000a01188005071800045
:101510004900de00614060000080fb006100600067
:101520000000e00002003a00010024000100370042
:101530008000eb00507180004800de0061406000d8
:101540000080fb00610060000000e00002003a0043
:1015500000002200010037000000eb008100700055
:10156000507180004700de00614060000080fb0099
:10157000610060000000e00002003a00000021006d
:10158000010037000000eb00810070001080800037
:1015900001007000b0288800208080004400dd0039
:1015a000a02888000c05a80000f4210070060700a0
:1015b0000c05a900a805070000f421006c0607002f
:1015c000803821006a0607000080fa00000006004b
:1015d0000000fa00889fbe0000502400c037880039
:1015e0003caea800d1448000f0ff2800808060005d
:1015f0000000260001007000d044880016e8a90011
:1016000036e8a800d1448000f08f2f008080600071
:101610000060200001007000d044880016c8a900b6
:1016200036c8a800a0818000b1818000020020009f
:10163000031024000bfd07000004be009081800011
:10164000cf80de00b1fc07000001be000800be0034
:1016500004fd0700d2cc2c00c3f4230001fd0700d9
:1016600089fc07000000780040288800a0818000e5
:10167000b18180000200200003102400f9fc070063
:101680000004be0090818000cf80de009ffc070038
:101690000001be000800be00f2fc0700a29929006c
:1016a00093f92300effc070077fc070000007800a7
:1016b000202888000105a80000e5a9000128800075
:1016c00080ff2f00008060006000b30000288800c9
:1016d0000165a80001e5a8004f04be000080fa00e3
:1016e000000006000000fa0020d0bf00e14f5000cb
:1016f00003003a00230007002070ef000c003700c1
:1017000021d0bf00e14f500004003a004e02070014
:101710002170ef001a30ef000500370022d0bf0023
:10172000e14f500002003a00420107002270ef0032
:101730000080fa00000006000000fa000028ef0018
:101740000228ef000428ef000628ef000828ef0029
:1017500001438000f0f82f00808060000006200028
:10176000010070000043880021428000f0ff280043
:101770000080600000e0a000204288000080fa00a5
:10178000000006000000fa003342a800e06f2800c5
:1017900073060700a2848000b384800000f02f004d
:1017a0000100200002027800030178008001780027
:1017b0000100780003026200000061008000eb007d
:1017c000c000dd00000020000001be006120b80064
:1017d0000001710081817100481add004810de00af
:1017e00000007200c818de00004078000000fb0016
:1017f0006081880061818000000f2000008060000f
:1018000050818800508180004400de000003b00059
:1018100050818800608180006f0060000003b0008c
:1018200040818800508180005b0607004081800075
:1018300059060700a0848000b18480000040780031
:101840000000fb006081880061818000000f2000a3
:101850000080600050818800508180004400de00dc
:101860000003b00050818800608180006f0060003c
:101870000003b000408188005081800046060700c8
:101880004081800044060700d0712800340607001c
:101890000000000091118000001020000080600016
:1018a0000000e000fbff3200a0002000a011880033
:1018b00000000000911180000010200000806000f6
:1018c0000000e000fbff3200d0002000a0118800e3
:1018d000b072280022060700018580001085800074
:1018e0004800dd000100700010808800108080003a
:1018f000cf80de0005fc070002002000030a240060
:1019000058fc0700020020000358240098fb070041
:10191000e0808800f1808800800321002081880019
:1019200022818000e0808000f18080009e05070019
:101930000830ef000f003700000000009111800018
:1019400000102000008060000000e000fbff32007b
:10195000408080008103210000804000104078001a
:101960000000fb00a0118800408080000000e8001b
:101970004080880040808000e40f5000eeff34007b
:101980000000000091118000001020000080600025
:101990000000e000fbff3200a0002000a011880042
:1019a0000000000091118000001020000080600005
:1019b0000000e000fbff3200d0002000a0118800f2
:1019c00000742800e6050700e1848000f0848000b0
:1019d0004800dd0001007000708188007081800087
:1019e0000017b100cf80de00c8fb070012582900a5
:1019f000f31724005efb0700e0808800f180880078
:101a0000800321002081880022818000e080800006
:101a1000f1808000640507000830ef000f003700f8
:101a20000000000091118000001020000080600084
:101a30000000e000fbff32004080800081032100b5
:101a400000804000104078000000fb00a0118800da
:101a5000408080000000e8004080880040808000d6
:101a6000e40f5000eeff34000000000091118000f0
:101a700000102000008060000000e000fbff32004a
:101a8000a0002000a011880000000000911180003b
:101a900000102000008060000000e000fbff32002a
:101aa000d0002000a011880050752800ac05070068
:101ab00000000000911180000010200000806000f4
:101ac0000000e000fbff3200a0002000a011880011
:101ad00000000000911180000010200000806000d4
:101ae0000000e000fbff3200d0002000a0118800c1
:101af000c0848000640060000000e00003003a0041
:101b0000c06e28009605070003003700606f2800ac
:101b100093050700000000009111800000102000d4
:101b2000008060000000e000fbff3200a000200009
:101b3000a01188000000000091118000001020001a
:101b4000008060000000e000fbff3200d0002000b9
:101b5000a0118800c0848000620060000000e000e6
:101b600003003a00a06d28007d0507000300370040
:101b7000406e28007a0507000000000091118000e7
:101b800000102000008060000000e000fbff320039
:101b9000a0002000a011880000000000911180002a
:101ba00000102000008060000000e000fbff320019
:101bb000d0002000a0118800c08480006100600077
:101bc0000000e00003003a00806c28006405070074
:101bd00003003700206d28006105070000000000a9
:101be0009111800000102000008060000000e000e3
:101bf000fbff3200a0002000a011880000000000c0
:101c00009111800000102000008060000000e000c2
:101c1000fbff3200d0002000a01188002c8ea8000d
:101c2000a0c0b300c70407002c8ea9000080fa00f2
:101c3000000006000000fa003342a800a076280049
:101c40004705070010848000004078008000fb00fa
:101c5000f0032000008060006081880061818000c6
:101c6000000f2000008060005081880050818000bb
:101c70004400de000003b0005081880060818000d5
:101c80006f0060000003b000408188005081800038
:101c900041050700408180003f050700d071280002
:101ca0002f050700000000009111800000102000a7
:101cb000008060000000e000fbff3200a000200078
:101cc000a011880000000000911180000010200089
:101cd000008060000000e000fbff3200d000200028
:101ce000a0118800b07228001d05070061848000e3
:101cf000508480004800dd000100700010808800e2
:101d000010808000cf80de0000fb07000200200072
:101d1000030a240053fb070002002000035824009c
:101d200093fa0700e0808800f1808800800321009a
:101d30002081880022818000e0808000f180800086
:101d4000990407000830ef000f0037000000000082
:101d50009111800000102000008060000000e00071
:101d6000fbff3200408080008103210000804000a2
:101d7000104078000000fb00a01188004080800027
:101d80000000e8004080880040808000e40f5000a0
:101d9000eeff3400000000009111800000102000d0
:101da000008060000000e000fbff3200a000200087
:101db000a011880000000000911180000010200098
:101dc000008060000000e000fbff3200d000200037
:101dd000a011880000742800e104070041848000fd
:101de000308480004800dd000100700070818800b0
:101df000708180000017b100cf80de00c3fa0700b9
:101e000012582900f317240059fa0700e0808800cf
:101e1000f1808800800321002081880022818000d9
:101e2000e0808000f18080005f0407000830ef0050
:101e30000f0037000000000091118000001020000a
:101e4000008060000000e000fbff32004080800066
:101e50008103210000804000104078000000fb005a
:101e6000a0118800408080000000e80040808800c9
:101e700040808000e40f5000eeff340000000000be
:101e80009111800000102000008060000000e00040
:101e9000fbff3200a0002000a0118800000000001d
:101ea0009111800000102000008060000000e00020
:101eb000fbff3200d0002000a011880050752800e0
:101ec000a70407000000000091118000001020000e
:101ed000008060000000e000fbff3200a000200056
:101ee000a011880000000000911180000010200067
:101ef000008060000000e000fbff3200d000200006
:101f0000a011880020848000610060000000e000d3
:101f100003003a00c06e2800910407000300370058
:101f2000606f28008e0407000000000091118000ff
:101f300000102000008060000000e000fbff320085
:101f4000a0002000a0118800000000009111800076
:101f500000102000008060000000e000fbff320065
:101f6000d0002000a0118800208480006200600062
:101f70000000e00003003a00a06d2800780407008c
:101f800003003700406e28007504070000000000c1
:101f90009111800000102000008060000000e0002f
:101fa000fbff3200a0002000a0118800000000000c
:101fb0009111800000102000008060000000e0000f
:101fc000fbff3200d0002000a01188002084800098
:101fd000640060000000e00003003a00806c28000c
:101fe0005f04070003003700206d28005c04070031
:101ff00000000000911180000010200000806000af
:102000000000e000fbff3200a0002000a0118800cb
:10201000000000009111800000102000008060008e
:102020000000e000fbff3200d0002000a01188007b
:102030002caea800a0c0b300c20307002caea900bc
:102040000080fa00000006000000fa003342a800f9
:102050007078280042040700000000009111800001
:1020600000102000008060000000e000fbff320054
:10207000a0002000a0118800000000009111800045
:1020800000102000008060000000e000fbff320034
:10209000d0002000a0118800c07a2800300407007a
:1020a00081818000f0ff20000080600010808800a7
:1020b00010808000cf80de0014fa070002002000ac
:1020c000030a240067fa07000200200003582400d6
:1020d000a7f90700e0808800f180880080032100d4
:1020e0002081880022818000e0808000f1808000d3
:1020f000ad0307000830ef000f00370000000000bc
:102100009111800000102000008060000000e000bd
:10211000fbff3200408080008103210000804000ee
:10212000104078000000fb00a01188004080800073
:102130000000e8004080880040808000e40f5000ec
:10214000eeff34000000000091118000001020001c
:10215000008060000000e000fbff3200a0002000d3
:10216000a0118800000000009111800000102000e4
:10217000008060000000e000fbff3200d000200083
:10218000a011880000742800f5030700708180000a
:102190000017b100cf80de00dcf9070012582900db
:1021a000f317240072f90700e0808800f1808800ae
:1021b000800321002081880022818000e08080004f
:1021c000f1808000780307000830ef000f0037002f
:1021d00000000000911180000010200000806000cd
:1021e0000000e000fbff32004080800081032100fe
:1021f00000804000104078000000fb00a011880023
:10220000408080000000e80040808800408080001e
:10221000e40f5000eeff3400000000009111800038
:1022200000102000008060000000e000fbff320092
:10223000a0002000a0118800000000009111800083
:1022400000102000008060000000e000fbff320072
:10225000d0002000a011880050752800c00307009e
:10226000000000009111800000102000008060003c
:102270000000e000fbff3200a0002000a011880059
:10228000000000009111800000102000008060001c
:102290000000e000fbff3200d0002000a011880009
:1022a0008181800000002400008060004e80de00fc
:1022b0000000e00003003a00c06e2800a8030700f9
:1022c00003003700606f2800a5030700000000002e
:1022d0009111800000102000008060000000e000ec
:1022e000fbff3200a0002000a011880000000000c9
:1022f0009111800000102000008060000000e000cc
:10230000fbff3200d0002000a011880081818000f6
:1023100000002200008060004d80de000000e00030
:1023200003003a00a06d28008d030700030037006a
:10233000406e28008a030700000000009111800011
:1023400000102000008060000000e000fbff320071
:10235000a0002000a0118800000000009111800062
:1023600000102000008060000000e000fbff320051
:10237000d0002000a0118800818180000000210091
:10238000008060004c80de000000e00003003a00a6
:10239000806c28007203070003003700206d2800be
:1023a0006f03070000000000911180000010200062
:1023b000008060000000e000fbff3200a000200071
:1023c000a011880000000000911180000010200082
:1023d000008060000000e000fbff3200d000200021
:1023e000a01188002ccea800a0c0b300d502070021
:1023f0002ccea9000080fa00000006000200fa00be
:10240000288ea90028aea90028cea90086cea80053
:1024100086eea80078cea80078eea800b171800002
:10242000f0c32f0000806000b07188000c30ef0016
:102430000a30ef001830ef001a30ef000000eb0018
:10244000000f7800070037001e0078008000400071
:1024500000082100008040008000eb0001087800a7
:102460001e0fe8001e007800e70f5000f6ff340052
:1024700005e1a9000421a90004c1a90021088000e8
:1024800000032000010070002008880060892900f6
:102490001008880001428000f0ff28008080600062
:1024a0000000230001007000004288000068a900bd
:1024b0002068a80011e1a9001021a90010c1a900fd
:1024c000810880000003200001007000800888005f
:1024d0000621ef00a0612000600888001142800002
:1024e000f0ff28000080600000d0a00010428800ab
:1024f00000e8a90020e8a80011e1a80005e1a80073
:102500000080fa00000006000000fa00517180000f
:1025100000082000008060000000e0000a00320097
:102520005171800000102000008060000000e00079
:102530000500320051718000002020000080600002
:102540000000e00013003a00e0c1b3007d02070084
:102550005171800000082000008060000000e00051
:102560000a003200517180000010200000806000dd
:102570000000e000050032005171800000202000c2
:10258000008060000000e00002003a002670ef00ca
:102590000200370010c0b30026f0b7000080fa0038
:1025a000000006000000fa000830ef000d003700c0
:1025b0002c8ea9002caea9002ccea900f0c0b3002f
:1025c000600207002c8ea8002caea8002ccea8001c
:1025d000c0c0b3005b020700408080000000e8003c
:1025e0004080880040808000e50f5000f0ff3400fc
:1025f0000080fa00000006000000fa002c8ea800ff
:102600002caea9002ccea90040c1b3004d0207009a
:102610002caea80040c1b3004a0207002ccea8008f
:1026200020c3b300470207002ccea90040c1b3006d
:10263000440207002caea90040c1b30041020700cc
:102640002c8ea9000080fa00000006000000fa00ad
:102650000134800000fc2f00808060009003200087
:1026600001007000003488003caea900d144800015
:10267000f0ff28008080600000002500010070004d
:10268000d044880016e8a90036e8a800d1448000ac
:10269000f08f2f008080600000602000010070003b
:1026a000d044880016c8a90036c8a80090818000d0
:1026b000cf80de0095f807000002be00a0818000f8
:1026c000b18180000001be000400be00e5f80700f3
:1026d0006df80700000078000000e900202888005d
:1026e0000145a8000105a80000e5a9000128800017
:1026f00080ff2f00008060006000b3000028880089
:1027000001e5a8001625ef001425ef000080fa006f
:10271000000006000000fa00213a8000f0f32f00cc
:1027200000806000203a8800213a800000fe2f00df
:1027300000806000203a880060022000303a880063
:1027400040a7a9000080fa00000006000000fa007f
:10275000792ea9007d2ea900642ea900640ea80080
:1027600000062000a0368800e00020001034880019
:1027700001208000f08f2f000080600000a0a000ea
:10278000002088000000000001208000000e2000d2
:102790008080600000082000808f5000faff3a001f
:1027a0000004a9007004200080208800202d200053
:1027b00090208800f0012c003020880001cba90077
:1027c00001aba80001588000f0fc2f0000806000e1
:1027d0000050a0000058880001588000c0ff2f0062
:1027e00000806000005888006004200010588800b5
:1027f0007000200070588800204420006058880035
:102800000020210020588800002021003058880036
:1028100030e4a800802180003000b30080218800cf
:1028200001eba800000220000059880000442000ad
:102830006059880070002000705988002002200034
:102840001059880000202100205988000020210014
:102850003059880021eba80031208000f0ff2100d2
:1028600000806000302088000004a800c1208000a3
:10287000c0ff2f0000806000c020880000fe2f00f5
:1028800080218800004622000022880080218000ec
:102890000030a00080218800002280000030a100cc
:1028a000002288000121800000ff2f0000806000ce
:1028b0000000a000002188001404a8000004a90062
:1028c00031e4a9002a24ef00502180004021880033
:1028d0004021800010218800102180000021880004
:1028e00001208000f08f2f00008060000020880011
:1028f0000000000001208000000e20000080600029
:102900000000e000fbff3a000c24a8002468a800a7
:102910000080fa00000006000000fa00c048200015
:10292000009088000000eb001090880060002000fc
:1029300020908800507180004700de0061406000f8
:102940000080fb006100600000f0a7000000ea00ca
:102950000000e9004f00de0051718000c808de0071
:10296000e1c060008180fb00e18060000100e000c8
:1029700002003a0021002000010037008000eb0037
:1029800080807000507180004900de00614060006e
:102990000080fb00610060000000e00002003a00df
:1029a00040002000010037000000eb000100700033
:1029b0003090880020808000409088001080800047
:1029c000509088000000000000000000000000009f
:1029d0003064a800000000000000000000000000bb
:1029e0000000000080218000680060000000e0001e
:1029f000fcff3a000080fa00000006000000fa0028
:102a00002023ef002223ef002423ef003223ef00e6
:102a10002623ef0001198000f0cf2f000080600016
:102a2000001988002043a80080c0b30024e3b70049
:102a300021198000f00f2e000080600000b0a0007f
:102a4000201988002143a80021e3a800790ea900dd
:102a50007d0ea80060092000450107002023a80082
:102a60000080fa00000006000200fa00000f780063
:102a70000630ef000830ef00210037001e0078001c
:102a800000407800f043b2008080fb00f00320009b
:102a9000008060004219800001fc2f00810061006d
:102aa000010070004019880001a8a9002023a90096
:102ab0000000000000000000000000000000000016
:102ac0000000000000000000000000000140800045
:102ad00000002200008060000000e000fbff3200e8
:102ae0003080800080007800001880000080400066
:102af00030808800408080000000e800408088002e
:102b000040808000e30f5000dcff34003080800004
:102b10004280de00308088000080fa00000006005d
:102b20000000fa000eeea900010ea90000eea900b7
:102b3000050ea80004eea80001348000f00f2c0060
:102b4000008060000080a000003488003ccea90016
:102b500080042000203688003d0ea8002002a90035
:102b60000111800090ff2f0000806000001188009c
:102b700020a2a9002062a900702020004011880036
:102b800023a2a80023e2a9002188a80021e2a8002e
:102b90000080fa00000006000000fa000eeea90016
:102ba00000eea900050ea90004eea8008004200094
:102bb000203688003d0ea8002002a90001118000e7
:102bc00090ff2f00008060000011880020a2a90063
:102bd0002062a9007020200040118800111180009f
:102be000f0f32f0000806000101188002168a80019
:102bf0002828a80021e2a8000080fa0000000600b2
:102c00000000fa00148ea9009133800000fc2f0010
:102c1000008060003000b300903388003002a900cb
:102c20008111800090ff2f000080600080118800db
:102c300030a2a9003062a90000042000c011880061
:102c400033a2a90033e2a80023e8a80031e2a800db
:102c50000080fa00000006000000fa0000000000fa
:102c60001111800000102000008060000000e000d2
:102c7000fbff3200000000001111800000802000e6
:102c8000008060000000e000fbff3a002342a80043
:102c90002362a8002422ef0000000000500520005d
:102ca000201188000e30ef0070808000610060000d
:102cb000708088000080eb00808088008080800029
:102cc0006100600080808800000000001111800019
:102cd00000102000008060000000e000fbff3200d8
:102ce00020342000a200070080808000c700dd00a3
:102cf000708080004600dd008100700030022000fe
:102d00000100700090808800908080002011880071
:102d1000203420009600070090808000b08088005a
:102d2000507180004700de00614060000080fb00c1
:102d30006100600000f0a7000000ea000000e90068
:102d40004f00de0051718000c808de00e1c0600065
:102d50008180fb00e18060000100e00002003a0099
:102d600021002000010037008000eb00808070000f
:102d7000507180004900de00614060000080fb006f
:102d8000610060000000e00002003a004000200006
:102d9000010037000000eb0001007000a0808800f7
:102da000a080800057000700000000001111800083
:102db00000102000008060000000e000fbff3200f7
:102dc000a080800020118800208080004800de0064
:102dd000a0808800a08080004a000700000000005a
:102de0001111800000102000008060000000e00051
:102df000fbff3200203420005d000700a08080002f
:102e00002011880021808000f00f200000806000e9
:102e1000a0808800a08080003a0007000000000029
:102e20001111800000102000008060000000e00010
:102e3000fbff3200203420004d000700a0808000fe
:102e400020118800108080004800de00a0808800eb
:102e5000a08080002b0007000000000011118000fe
:102e600000102000008060000000e000fbff320046
:102e7000203420003e000700a08080002011880040
:102e800011808000f00f200000806000a08088008a
:102e9000a08080001b0007000000000011118000ce
:102ea00000102000008060000000e000fbff320006
:102eb000203420002e000700a08080002011880010
:102ec000b08080008080ea00f00f20000080600069
:102ed000b080880000000000111180000010200068
:102ee000008060000000e000fbff32002034200082
:102ef0001f000700b0808000201188000080fa00c9
:102f0000000006000200fa00000f7800b080800088
:102f10001e004000b0808800b1808000f00f2000cb
:102f2000808f500005003400b1808000f00f200039
:102f3000008060000000e800b08088000080fa0097
:102f4000000006000200fa00004f78000a30ef008f
:102f5000000000009e80fb0050808000808f5000a9
:102f6000fcff3c000a30ef000080fa000000060081
:102f70000400fa00100798000000eb00000f780032
:102f80000300370027000900000000001e0fe800c2
:102f90001e0090009e007800808f5000f9ff3500e1
:102fa0000080fa00000006000e00fa00881f78007a
:102fb0004007980051079800620798000000eb0056
:102fc000000f78000000eb00100798000000eb00f5
:102fd000200798000000eb003007980018c0b300ed
:102fe0006011b8004e009000de00900022f607004d
:102ff0000000e000010035000044eb000804e000a0
:103000000b0032001e007800ee00900000804000af
:10301000d1c2b300014878001e0fe8004e009000b6
:10302000de00900001f0a2004007980051079800d0
:103030000000eb00200798000a0037000200200083
:10304000031224004e009000de009000c8f5070037
:1030500040079800510798002e0090000000e800fb
:103060002007980018c0b3000200200003122400bb
:103070004e009000de00900001f607000000e00026
:1030800001003d000044eb000804e000ebff3a00c3
:1030900010002000100798002b0037004e00900011
:1030a000de009000f8f50700300798003e00900021
:1030b000cf80de0015f607000001be004e00900034
:1030c000de0090004cf5070040079800510798007b
:1030d0001e007800ee00900000804000be009000ce
:1030e000814078000143b000014878001e0fe800dd
:1030f0002e0090000000e00006003a001e0078005c
:10310000ee00900000804000e1c2b300014878006a
:103110001e0fe80002002000031224004e00900061
:10312000de0090004ff60700400798005107980016
:103130002e0090000000e900200798001e0090007b
:103140000000e800100798001e009000e50f5000f6
:10315000d2ff34004f0478000080fa00000006001f
:103160000200fa00000f7800050037001e0078000a
:10317000104078000000fb001e0fe800060007006a
:103180001e007800104078000004e000f7ff3a00cd
:103190000080fa00000006000200fa00000f78002c
:1031a00000000000911180000020200000806000dd
:1031b0000000e000fbff3a001e007800a01188002c
:1031c0000080fa00000006000a00fa00400798009c
:1031d0000000eb00100798000000eb00000f7800e3
:1031e0006000b80020079800310798004e0090005a
:1031f000304090000080fb00c400dd000020210072
:103200000080400010007800610060001007980006
:103210001e0090000000e0001a003a004e009000ee
:10322000304090000080fb00c400dd000020210041
:103230000080400090007800c0ff21000080600006
:103240004200de008000eb004e019000200198005b
:10325000310198004e00900041c0b3002140980019
:103260004e009000304090000080fb00c400dd0064
:10327000002021000080400010007800620f6000f4
:103280006b0037004e009000304090000080fb0043
:10329000c400dd0000202100008040001000780004
:1032a0006101b800c0ff2100010020000202780087
:1032b00003017800800178000100780003026200b9
:1032c000000061008000eb00c000dd000000200075
:1032d0000001be006120b800000171008181710011
:1032e00022079800330798002e009000be0090003f
:1032f000c000dd00000020004e0190002001980079
:10330000310198004e009000304090000080fb009a
:103310004400dd008080e8000020210000804000a3
:10332000100078006101b800f0ff200001002000cb
:103330000202780003017800800178000100780023
:1033400003026200000061008000eb00c000dd00ad
:10335000000020000001be006120b80000017100e3
:103360008181710022079800330798004e00900079
:1033700020019000b00190002e029000be0290004b
:103380004628dd00ca20de00810070004620dd00f6
:1033900002004000838048004e0190002001980008
:1033a000310198004e009000304090000080fb00fa
:1033b0004400dd00e40040000020210000804000c7
:1033c000100078004a00de008000eb002007980023
:1033d000310798004e00900020019000b00190004d
:1033e0002e009000be009000020040008380480044
:1033f0004e01900020019800310198004e0090008d
:1034000031c0b300214098004e0090003040900041
:103410000080fb004400dd00e400400000202100ab
:10342000008040009000780000202000008f6000a5
:103430001e007800e10f500004003a004e0090009a
:1034400021c0b30011409800730037004e00900077
:1034500011c0b300114098004e0090003040900021
:103460000080fb004400dd00e60040000020210059
:103470000080400010007800004078008080fb0051
:103480004e009000410098004e00900030409000a7
:103490000080fb004400dd00e60040000020210029
:1034a00000804000100078004800de0000407800f6
:1034b0008080fb004e009000510098004e0090006c
:1034c000304090000080fb004400dd00e800400038
:1034d00000202100008040001000780000407800ab
:1034e0008080fb004e009000610098004e0090002c
:1034f000304090000080fb004400dd00e800400008
:103500000020210000804000100078004800de000c
:10351000004078008080fb004e0090007100980011
:103520004e009000304090000080fb004400dd0021
:10353000ea004000002021000080400010007800d8
:10354000004078008080fb004e0090000108980049
:103550004e009000304090000080fb004400dd00f1
:10356000ea004000002021000080400010007800a8
:103570004800de00004078008080fb004e00900094
:10358000110898004e009000304090000080fb0031
:103590004400dd00ec0040000020210000804000dd
:1035a00010007800004078008080fb004e00900002
:1035b000210898004e009000304090000080fb00f1
:1035c0004400dd00ec0040000020210000804000ad
:1035d000100078004800de00004078008080fb008a
:1035e0004e009000310898004e009000304090004e
:1035f0000080fb004400dd00e400400000202100ca
:10360000008040001000780000407800ef4060002b
:103610004e009000015898004e00900030409000fd
:10362000020007000080fa00000006000200fa0015
:10363000004f780000218000620060000000e00080
:10364000050032001e407800e14f500002003a00b1
:103650002024a900110037000021800064006000d0
:103660000000e000050032001e407800e24f5000ec
:1036700002003a002044a900080037000021800021
:10368000680060000000e000040032001e40780086
:10369000e34f500001003a002064a9000080fa00c6
:1036a00000000600801f78000000fa0060808000a3
:1036b0000000e800608088000068a9000080fa002f
:1036c0004f00780000400600801f78000000fa00dc
:1036d000508080000000e8005080880000e8a900c9
:1036e0000080fa004f00780000400600809fbe0076
:1036f0000000fa000468a90050208000610060000a
:103700000000e000010032000a04a90050208000ff
:10371000620060000000e0000d0032000021800027
:10372000620060000000e000080032000009210093
:1037300051c0b300014878003009210011c0b30026
:103740000148780010c0b30020f0b7000a24a90097
:103750000080fa004f00be0000400600809fbe00bf
:103760000000fa000000000011118000001020008d
:10377000008060000000e000fbff32000188a9002b
:103780000080fa004f00be0000400600809fbe008f
:103790000000fa00000000009111800000102000dd
:1037a000008060000000e000fbff320003e8a90099
:1037b0000080fa004f00be0000400600809fbe005f
:1037c000821f78000000fa003011800070818800ac
:1037d0007181800050052000808f500015003a0054
:1037e000d0808000e10f500012003a00c0808000bd
:1037f0000000e0000f003a0020002000d080880088
:10380000c08080007181800001017800f10f2000ec
:10381000810061000001400000082100000041001b
:1038200001087800c08080000000e800c0808800a7
:1038300016003700d0808000e20f500013003a00dd
:10384000c08080007181800001017800f10f2000ac
:1038500081006100000140000008210000004100db
:1038600001087800c08080000000e800c080880067
:10387000c0808000e80f500004003a0010c0b30080
:1038800022f0b7001830ef001a30ef000168a900ed
:103890000080fa004f0178004f00be000040060093
:1038a000801f78000000fa001011800064006000a2
:1038b0000000e0000200320010002000d0808800ec
:1038c0000828a9000080fa004f0078000040060098
:1038d0000000fa0003c8a9000080fa0000400600ba
:1038e000809fbe003200f8003400f8001000200075
:1038f000a001880000202000900188000000000046
:103900000000fa0001288000008020000080600094
:103910000000e00007003200a02880004400de0024
:1039200070818800b02880008081880010c0b300ba
:1039300021f0b70016e8a9000080fa003400f90071
:103940003200f9004f00be00004006003200f800cf
:103950003400f800881f780018002000a8018800b3
:103960000820200098018800000000004f04780023
:103970000000fa0016c8a9002c8ea8002caea800e2
:103980002ccea800ffff37000000fa000088a90035
:103990000080fa00004006000000fa0001c8a900fb
:1039a0000080fa00004006000000fa000308a900a9
:1039b0000080fa00004006000000fa000488a90018
:1039c0000080fa00004006003200f8003400f800e1
:1039d000881f780018002000a80188000820200017
:1039e00098018800000000004f0478000000fa00f1
:1039f0002c8ea8002caea8002ccea800ffff37000c
:103a00003200f8003400f800881f78001800200009
:103a1000a80188000820200098018800000000000c
:103a20004f0478000000fa002c8ea8002caea800ed
:103a30002ccea800ffff37000000fa002c8ea80053
:103a40002caea8002ccea800ffff37000000fa0023
:103a50002c8ea8002caea8002ccea800ffff3700ab
:103a60000000fa002c8ea8002caea8002ccea800d6
:043a7000ffff37001d
:020000040000fa
:103a740038100000720000008000000000120000f6
:103a8400000200008000000000100000320000006e
:103a940080000000321000000600000082000000d8
:0c3aa40032007b00141f420000000000f4
:020000040000fa
:020000040005f5
:04573000fbff00007b
:020000040000fa
:020000040005f5
:04573800bdff0000b1
:020000040000fa
:020000040005f5
:045740009fff0000c7
:020000040000fa
:020000040005f5
:04574800feff000060
:020000040000fa
:020000040005f5
:04575000feff000058
:020000040000fa
:020000040005f5
:04577800feff000030
:00000001FF
